{
  "_format": "hh3-artifact-1",
  "contractName": "PickerPayment",
  "sourceName": "contracts/PickerPayment.sol",
  "abi": [
    {
      "inputs": [],
      "stateMutability": "nonpayable",
      "type": "constructor"
    },
    {
      "inputs": [],
      "name": "AccessControlBadConfirmation",
      "type": "error"
    },
    {
      "inputs": [
        {
          "internalType": "address",
          "name": "account",
          "type": "address"
        },
        {
          "internalType": "bytes32",
          "name": "neededRole",
          "type": "bytes32"
        }
      ],
      "name": "AccessControlUnauthorizedAccount",
      "type": "error"
    },
    {
      "inputs": [],
      "name": "AddressAlreadyOperator",
      "type": "error"
    },
    {
      "inputs": [],
      "name": "AddressNotOperator",
      "type": "error"
    },
    {
      "inputs": [],
      "name": "InsufficientBalance",
      "type": "error"
    },
    {
      "inputs": [],
      "name": "InvalidPickerData",
      "type": "error"
    },
    {
      "inputs": [],
      "name": "PickerAlreadyExists",
      "type": "error"
    },
    {
      "inputs": [],
      "name": "PickerNotFound",
      "type": "error"
    },
    {
      "inputs": [],
      "name": "ReentrancyGuardReentrantCall",
      "type": "error"
    },
    {
      "inputs": [],
      "name": "TransferFailed",
      "type": "error"
    },
    {
      "inputs": [],
      "name": "ZeroAddressNotAllowed",
      "type": "error"
    },
    {
      "anonymous": false,
      "inputs": [
        {
          "indexed": true,
          "internalType": "address",
          "name": "deployer",
          "type": "address"
        },
        {
          "indexed": false,
          "internalType": "uint256",
          "name": "amount",
          "type": "uint256"
        }
      ],
      "name": "FundsWithdrawn",
      "type": "event"
    },
    {
      "anonymous": false,
      "inputs": [
        {
          "indexed": true,
          "internalType": "address",
          "name": "operator",
          "type": "address"
        }
      ],
      "name": "OperatorAdded",
      "type": "event"
    },
    {
      "anonymous": false,
      "inputs": [
        {
          "indexed": true,
          "internalType": "address",
          "name": "operator",
          "type": "address"
        }
      ],
      "name": "OperatorRemoved",
      "type": "event"
    },
    {
      "anonymous": false,
      "inputs": [
        {
          "indexed": true,
          "internalType": "bytes32",
          "name": "pickerId",
          "type": "bytes32"
        },
        {
          "indexed": false,
          "internalType": "uint256",
          "name": "amount",
          "type": "uint256"
        }
      ],
      "name": "PaymentProcessed",
      "type": "event"
    },
    {
      "anonymous": false,
      "inputs": [
        {
          "indexed": true,
          "internalType": "bytes32",
          "name": "pickerId",
          "type": "bytes32"
        },
        {
          "indexed": true,
          "internalType": "address",
          "name": "wallet",
          "type": "address"
        }
      ],
      "name": "PickerRegistered",
      "type": "event"
    },
    {
      "anonymous": false,
      "inputs": [
        {
          "indexed": true,
          "internalType": "bytes32",
          "name": "pickerId",
          "type": "bytes32"
        }
      ],
      "name": "PickerRemoved",
      "type": "event"
    },
    {
      "anonymous": false,
      "inputs": [
        {
          "indexed": true,
          "internalType": "bytes32",
          "name": "role",
          "type": "bytes32"
        },
        {
          "indexed": true,
          "internalType": "bytes32",
          "name": "previousAdminRole",
          "type": "bytes32"
        },
        {
          "indexed": true,
          "internalType": "bytes32",
          "name": "newAdminRole",
          "type": "bytes32"
        }
      ],
      "name": "RoleAdminChanged",
      "type": "event"
    },
    {
      "anonymous": false,
      "inputs": [
        {
          "indexed": true,
          "internalType": "bytes32",
          "name": "role",
          "type": "bytes32"
        },
        {
          "indexed": true,
          "internalType": "address",
          "name": "account",
          "type": "address"
        },
        {
          "indexed": true,
          "internalType": "address",
          "name": "sender",
          "type": "address"
        }
      ],
      "name": "RoleGranted",
      "type": "event"
    },
    {
      "anonymous": false,
      "inputs": [
        {
          "indexed": true,
          "internalType": "bytes32",
          "name": "role",
          "type": "bytes32"
        },
        {
          "indexed": true,
          "internalType": "address",
          "name": "account",
          "type": "address"
        },
        {
          "indexed": true,
          "internalType": "address",
          "name": "sender",
          "type": "address"
        }
      ],
      "name": "RoleRevoked",
      "type": "event"
    },
    {
      "inputs": [],
      "name": "DEFAULT_ADMIN_ROLE",
      "outputs": [
        {
          "internalType": "bytes32",
          "name": "",
          "type": "bytes32"
        }
      ],
      "stateMutability": "view",
      "type": "function"
    },
    {
      "inputs": [],
      "name": "DEV_SHARE_PERCENT",
      "outputs": [
        {
          "internalType": "uint256",
          "name": "",
          "type": "uint256"
        }
      ],
      "stateMutability": "view",
      "type": "function"
    },
    {
      "inputs": [],
      "name": "FEE_PERCENT",
      "outputs": [
        {
          "internalType": "uint256",
          "name": "",
          "type": "uint256"
        }
      ],
      "stateMutability": "view",
      "type": "function"
    },
    {
      "inputs": [],
      "name": "OPERATOR_ROLE",
      "outputs": [
        {
          "internalType": "bytes32",
          "name": "",
          "type": "bytes32"
        }
      ],
      "stateMutability": "view",
      "type": "function"
    },
    {
      "inputs": [],
      "name": "PERCENT_DENOMINATOR",
      "outputs": [
        {
          "internalType": "uint256",
          "name": "",
          "type": "uint256"
        }
      ],
      "stateMutability": "view",
      "type": "function"
    },
    {
      "inputs": [],
      "name": "getAllOperators",
      "outputs": [
        {
          "internalType": "address[]",
          "name": "",
          "type": "address[]"
        }
      ],
      "stateMutability": "view",
      "type": "function"
    },
    {
      "inputs": [],
      "name": "getAllPickers",
      "outputs": [
        {
          "components": [
            {
              "internalType": "bytes32",
              "name": "pickerId",
              "type": "bytes32"
            },
            {
              "internalType": "bytes32",
              "name": "devUserId",
              "type": "bytes32"
            },
            {
              "internalType": "address",
              "name": "devWalletAddress",
              "type": "address"
            }
          ],
          "internalType": "struct PickerPayment.Picker[]",
          "name": "",
          "type": "tuple[]"
        }
      ],
      "stateMutability": "view",
      "type": "function"
    },
    {
      "inputs": [
        {
          "internalType": "bytes32",
          "name": "role",
          "type": "bytes32"
        }
      ],
      "name": "getRoleAdmin",
      "outputs": [
        {
          "internalType": "bytes32",
          "name": "",
          "type": "bytes32"
        }
      ],
      "stateMutability": "view",
      "type": "function"
    },
    {
      "inputs": [
        {
          "internalType": "address",
          "name": "operator",
          "type": "address"
        }
      ],
      "name": "grantOperatorRole",
      "outputs": [],
      "stateMutability": "nonpayable",
      "type": "function"
    },
    {
      "inputs": [
        {
          "internalType": "bytes32",
          "name": "role",
          "type": "bytes32"
        },
        {
          "internalType": "address",
          "name": "account",
          "type": "address"
        }
      ],
      "name": "grantRole",
      "outputs": [],
      "stateMutability": "nonpayable",
      "type": "function"
    },
    {
      "inputs": [
        {
          "internalType": "bytes32",
          "name": "role",
          "type": "bytes32"
        },
        {
          "internalType": "address",
          "name": "account",
          "type": "address"
        }
      ],
      "name": "hasRole",
      "outputs": [
        {
          "internalType": "bool",
          "name": "",
          "type": "bool"
        }
      ],
      "stateMutability": "view",
      "type": "function"
    },
    {
      "inputs": [
        {
          "internalType": "address",
          "name": "account",
          "type": "address"
        }
      ],
      "name": "isOperator",
      "outputs": [
        {
          "internalType": "bool",
          "name": "",
          "type": "bool"
        }
      ],
      "stateMutability": "view",
      "type": "function"
    },
    {
      "inputs": [
        {
          "internalType": "bytes32",
          "name": "pickerId",
          "type": "bytes32"
        },
        {
          "internalType": "bytes32",
          "name": "devUserId",
          "type": "bytes32"
        },
        {
          "internalType": "address",
          "name": "devWalletAddress",
          "type": "address"
        }
      ],
      "name": "pay",
      "outputs": [],
      "stateMutability": "payable",
      "type": "function"
    },
    {
      "inputs": [
        {
          "internalType": "bytes32",
          "name": "",
          "type": "bytes32"
        }
      ],
      "name": "pickers",
      "outputs": [
        {
          "internalType": "bytes32",
          "name": "pickerId",
          "type": "bytes32"
        },
        {
          "internalType": "bytes32",
          "name": "devUserId",
          "type": "bytes32"
        },
        {
          "internalType": "address",
          "name": "devWalletAddress",
          "type": "address"
        }
      ],
      "stateMutability": "view",
      "type": "function"
    },
    {
      "inputs": [
        {
          "internalType": "address",
          "name": "wallet",
          "type": "address"
        }
      ],
      "name": "queryPickerByWallet",
      "outputs": [
        {
          "internalType": "bytes32",
          "name": "",
          "type": "bytes32"
        },
        {
          "internalType": "bytes32",
          "name": "",
          "type": "bytes32"
        }
      ],
      "stateMutability": "view",
      "type": "function"
    },
    {
      "inputs": [
        {
          "internalType": "bytes32",
          "name": "pickerId",
          "type": "bytes32"
        },
        {
          "internalType": "bytes32",
          "name": "devUserId",
          "type": "bytes32"
        },
        {
          "internalType": "address",
          "name": "devWalletAddress",
          "type": "address"
        }
      ],
      "name": "registerPicker",
      "outputs": [],
      "stateMutability": "nonpayable",
      "type": "function"
    },
    {
      "inputs": [
        {
          "internalType": "bytes32",
          "name": "pickerId",
          "type": "bytes32"
        }
      ],
      "name": "removePicker",
      "outputs": [],
      "stateMutability": "nonpayable",
      "type": "function"
    },
    {
      "inputs": [
        {
          "internalType": "bytes32",
          "name": "role",
          "type": "bytes32"
        },
        {
          "internalType": "address",
          "name": "callerConfirmation",
          "type": "address"
        }
      ],
      "name": "renounceRole",
      "outputs": [],
      "stateMutability": "nonpayable",
      "type": "function"
    },
    {
      "inputs": [
        {
          "internalType": "address",
          "name": "operator",
          "type": "address"
        }
      ],
      "name": "revokeOperatorRole",
      "outputs": [],
      "stateMutability": "nonpayable",
      "type": "function"
    },
    {
      "inputs": [
        {
          "internalType": "bytes32",
          "name": "role",
          "type": "bytes32"
        },
        {
          "internalType": "address",
          "name": "account",
          "type": "address"
        }
      ],
      "name": "revokeRole",
      "outputs": [],
      "stateMutability": "nonpayable",
      "type": "function"
    },
    {
      "inputs": [
        {
          "internalType": "bytes4",
          "name": "interfaceId",
          "type": "bytes4"
        }
      ],
      "name": "supportsInterface",
      "outputs": [
        {
          "internalType": "bool",
          "name": "",
          "type": "bool"
        }
      ],
      "stateMutability": "view",
      "type": "function"
    },
    {
      "inputs": [
        {
          "internalType": "address",
          "name": "",
          "type": "address"
        }
      ],
      "name": "walletToPickerId",
      "outputs": [
        {
          "internalType": "bytes32",
          "name": "",
          "type": "bytes32"
        }
      ],
      "stateMutability": "view",
      "type": "function"
    },
    {
      "inputs": [
        {
          "internalType": "address payable",
          "name": "recipient",
          "type": "address"
        }
      ],
      "name": "withdrawFunds",
      "outputs": [],
      "stateMutability": "nonpayable",
      "type": "function"
    },
    {
      "stateMutability": "payable",
      "type": "receive"
    }
  ],
  "bytecode": "0x6080604052348015600e575f5ffd5b5060018055601b5f336020565b5060c6565b5f828152602081815260408083206001600160a01b038516845290915281205460ff1660bd575f838152602081815260408083206001600160a01b03861684529091529020805460ff1916600117905560763390565b6001600160a01b0316826001600160a01b0316847f2f8788117e7eff1d82e926ec794901d17c78024a50270940304540a733656f0d60405160405180910390a450600160c0565b505f5b92915050565b61154e806100d35f395ff3fe60806040526004361061013f575f3560e01c806391d14854116100b3578063d547741f1161006d578063d547741f146103d9578063d911c632146103f8578063dfccd70b14610419578063e7e309371461047f578063eaf98d2314610492578063f5b541a6146104a6575f5ffd5b806391d14854146103215780639e6c295914610340578063a217fddf14610354578063ab4f317914610367578063b219f7d714610386578063b2f959f2146103a5575f5ffd5b80632f2ff15d116101045780632f2ff15d1461026557806336568abe14610284578063574b6743146102a357806368742da6146102c45780636d70f7ae146102e35780638db9b63514610302575f5ffd5b806301ffc9a71461019557806312f17b38146101c9578063248a9ca31461020257806327ac0c58146102305780632b136e7114610251575f5ffd5b366101915760405162461bcd60e51b815260206004820181905260248201527f44697265637420455448207472616e7366657273206e6f7420616c6c6f77656460448201526064015b60405180910390fd5b5f5ffd5b3480156101a0575f5ffd5b506101b46101af36600461129c565b6104c6565b60405190151581526020015b60405180910390f35b3480156101d4575f5ffd5b506101f46101e33660046112d7565b60036020525f908152604090205481565b6040519081526020016101c0565b34801561020d575f5ffd5b506101f461021c3660046112f2565b5f9081526020819052604090206001015490565b34801561023b575f5ffd5b5061024f61024a3660046112d7565b6104fc565b005b34801561025c575f5ffd5b506101f4605f81565b348015610270575f5ffd5b5061024f61027f366004611309565b61060f565b34801561028f575f5ffd5b5061024f61029e366004611309565b610639565b3480156102ae575f5ffd5b506102b7610671565b6040516101c09190611337565b3480156102cf575f5ffd5b5061024f6102de3660046112d7565b61078f565b3480156102ee575f5ffd5b506101b46102fd3660046112d7565b61089e565b34801561030d575f5ffd5b5061024f61031c36600461139b565b6108aa565b34801561032c575f5ffd5b506101b461033b366004611309565b610a69565b34801561034b575f5ffd5b506101f4606481565b34801561035f575f5ffd5b506101f45f81565b348015610372575f5ffd5b5061024f6103813660046112f2565b610a91565b348015610391575f5ffd5b5061024f6103a03660046112d7565b610c1a565b3480156103b0575f5ffd5b506103c46103bf3660046112d7565b610d2c565b604080519283526020830191909152016101c0565b3480156103e4575f5ffd5b5061024f6103f3366004611309565b610d75565b348015610403575f5ffd5b5061040c610d99565b6040516101c091906113d1565b348015610424575f5ffd5b5061045b6104333660046112f2565b600260208190525f91825260409091208054600182015491909201546001600160a01b031683565b6040805193845260208401929092526001600160a01b0316908201526060016101c0565b61024f61048d36600461139b565b610e3f565b34801561049d575f5ffd5b506101f4600581565b3480156104b1575f5ffd5b506101f45f5160206114f95f395f51905f5281565b5f6001600160e01b03198216637965db0b60e01b14806104f657506301ffc9a760e01b6001600160e01b03198316145b92915050565b5f61050681610f86565b6001600160a01b03821661055c5760405162461bcd60e51b815260206004820152601f60248201527f4f70657261746f7220616464726573732063616e6e6f74206265207a65726f006044820152606401610188565b610567600483610f93565b156105b45760405162461bcd60e51b815260206004820152601e60248201527f4164647265737320697320616c726561647920616e206f70657261746f7200006044820152606401610188565b6105cb5f5160206114f95f395f51905f5283610fb7565b506105d7600483611046565b506040516001600160a01b038316907fac6fa858e9350a46cec16539926e0fde25b7629f84b5a72bffaae4df888ae86d905f90a25050565b5f8281526020819052604090206001015461062981610f86565b6106338383610fb7565b50505050565b6001600160a01b03811633146106625760405163334bd91960e11b815260040160405180910390fd5b61066c828261105a565b505050565b60605f61067d81610f86565b6006545f8167ffffffffffffffff81111561069a5761069a611411565b6040519080825280602002602001820160405280156106f557816020015b6106e260405180606001604052805f81526020015f81526020015f6001600160a01b031681525090565b8152602001906001900390816106b85790505b5090505f5b82811015610787575f6006828154811061071657610716611425565b5f918252602080832090910154808352600280835260409384902084516060810186528154815260018201549481019490945201546001600160a01b03169282019290925284519192509084908490811061077357610773611425565b6020908102919091010152506001016106fa565b509250505090565b5f61079981610f86565b6107a16110c3565b6001600160a01b0382166107c8576040516342bcdf7f60e11b815260040160405180910390fd5b475f8190036107ea57604051631e9acf1760e31b815260040160405180910390fd5b5f836001600160a01b0316826040515f6040518083038185875af1925050503d805f8114610833576040519150601f19603f3d011682016040523d82523d5f602084013e610838565b606091505b505090508061085a576040516312171d8360e31b815260040160405180910390fd5b60405182815233907feaff4b37086828766ad3268786972c0cd24259d4c87a80f9d3963a3c3d999b0d9060200160405180910390a2505061089a60018055565b5050565b5f6104f6600483610f93565b6108c15f5160206114f95f395f51905f5233610a69565b806108d157506108d15f33610a69565b6108ed5760405162461bcd60e51b815260040161018890611439565b6001600160a01b038116610914576040516342bcdf7f60e11b815260040160405180910390fd5b82158061091f575081155b1561093d57604051633d1ef09d60e21b815260040160405180910390fd5b5f83815260026020526040902054156109695760405163f11ad4ed60e01b815260040160405180910390fd5b6001600160a01b0381165f908152600360205260409020541561099f5760405163f11ad4ed60e01b815260040160405180910390fd5b6040805160608101825284815260208082018581526001600160a01b038581168486018181525f8a8152600280875288822097518855945160018089019190915591519690940180546001600160a01b0319169690931695909517909155808252600390925283812087905560068054938401815581527ff652222313e28459528d920b65115c16c04f3efc82aaedc97be59f3f377c0d3f909201869055915185917f6d79b247b112da971b4c82b2af235d56535b0c93fe0d02c63fab3f3b4ef1794e91a3505050565b5f918252602082815260408084206001600160a01b0393909316845291905290205460ff1690565b610aa85f5160206114f95f395f51905f5233610a69565b80610ab85750610ab85f33610a69565b610ad45760405162461bcd60e51b815260040161018890611439565b5f8181526002602052604090208054610b005760405163dc6b5b4960e01b815260040160405180910390fd5b6002808201546001600160a01b03165f9081526003602090815260408083208390558583529083905281208181556001810182905590910180546001600160a01b03191690555b600654811015610beb578260068281548110610b6557610b65611425565b905f5260205f20015403610be35760068054610b839060019061149b565b81548110610b9357610b93611425565b905f5260205f20015460068281548110610baf57610baf611425565b5f918252602090912001556006805480610bcb57610bcb6114ae565b600190038181905f5260205f20015f90559055610beb565b600101610b47565b5060405182907f77854c5b0c36fbd21f77b762589c5d82520c940c3f2454081c81bae5dc23491c905f90a25050565b5f610c2481610f86565b6001600160a01b038216610c7a5760405162461bcd60e51b815260206004820152601f60248201527f4f70657261746f7220616464726573732063616e6e6f74206265207a65726f006044820152606401610188565b610c85600483610f93565b610cd15760405162461bcd60e51b815260206004820152601a60248201527f41646472657373206973206e6f7420616e206f70657261746f720000000000006044820152606401610188565b610ce85f5160206114f95f395f51905f528361105a565b50610cf46004836110ed565b506040516001600160a01b038316907f80c0b871b97b595b16a7741c1b06fed0c6f6f558639f18ccbce50724325dc40d905f90a25050565b6001600160a01b0381165f90815260036020526040812054819080610d5657505f93849350915050565b5f90815260026020526040902080546001909101549094909350915050565b5f82815260208190526040902060010154610d8f81610f86565b610633838361105a565b60605f610da581610f86565b5f610db06004611101565b90505f8167ffffffffffffffff811115610dcc57610dcc611411565b604051908082528060200260200182016040528015610df5578160200160208202803683370190505b5090505f5b8281101561078757610e0d60048261110a565b828281518110610e1f57610e1f611425565b6001600160a01b0390921660209283029190910190910152600101610dfa565b610e476110c3565b5f8381526002602052604090208054610e735760405163dc6b5b4960e01b815260040160405180910390fd5b828160010154141580610e96575060028101546001600160a01b03838116911614155b15610eb457604051633d1ef09d60e21b815260040160405180910390fd5b345f6064610ec3605f846114c2565b610ecd91906114d9565b90505f846001600160a01b0316826040515f6040518083038185875af1925050503d805f8114610f18576040519150601f19603f3d011682016040523d82523d5f602084013e610f1d565b606091505b5050905080610f3f576040516312171d8360e31b815260040160405180910390fd5b867fd6950d49b769cdf8a136d8b2dd19b86a4582d0aee36c6348c8d14b8623925a7f84604051610f7191815260200190565b60405180910390a25050505061066c60018055565b610f908133611115565b50565b6001600160a01b0381165f90815260018301602052604081205415155b9392505050565b5f610fc28383610a69565b61103f575f838152602081815260408083206001600160a01b03861684529091529020805460ff19166001179055610ff73390565b6001600160a01b0316826001600160a01b0316847f2f8788117e7eff1d82e926ec794901d17c78024a50270940304540a733656f0d60405160405180910390a45060016104f6565b505f6104f6565b5f610fb0836001600160a01b03841661114e565b5f6110658383610a69565b1561103f575f838152602081815260408083206001600160a01b0386168085529252808320805460ff1916905551339286917ff6391f5c32d9c69d2a47ea670b442974b53935d1edc7fd64eb21e047a839171b9190a45060016104f6565b6002600154036110e657604051633ee5aeb560e01b815260040160405180910390fd5b6002600155565b5f610fb0836001600160a01b038416611193565b5f6104f6825490565b5f610fb08383611276565b61111f8282610a69565b61089a5760405163e2517d3f60e01b81526001600160a01b038216600482015260248101839052604401610188565b5f81815260018301602052604081205461103f57508154600181810184555f8481526020808220909301849055845484825282860190935260409020919091556104f6565b5f818152600183016020526040812054801561126d575f6111b560018361149b565b85549091505f906111c89060019061149b565b9050808214611227575f865f0182815481106111e6576111e6611425565b905f5260205f200154905080875f01848154811061120657611206611425565b5f918252602080832090910192909255918252600188019052604090208390555b8554869080611238576112386114ae565b600190038181905f5260205f20015f90559055856001015f8681526020019081526020015f205f9055600193505050506104f6565b5f9150506104f6565b5f825f01828154811061128b5761128b611425565b905f5260205f200154905092915050565b5f602082840312156112ac575f5ffd5b81356001600160e01b031981168114610fb0575f5ffd5b6001600160a01b0381168114610f90575f5ffd5b5f602082840312156112e7575f5ffd5b8135610fb0816112c3565b5f60208284031215611302575f5ffd5b5035919050565b5f5f6040838503121561131a575f5ffd5b82359150602083013561132c816112c3565b809150509250929050565b602080825282518282018190525f918401906040840190835b8181101561139057835180518452602080820151818601526040918201516001600160a01b03169185019190915290930192606090920191600101611350565b509095945050505050565b5f5f5f606084860312156113ad575f5ffd5b833592506020840135915060408401356113c6816112c3565b809150509250925092565b602080825282518282018190525f918401906040840190835b818110156113905783516001600160a01b03168352602093840193909201916001016113ea565b634e487b7160e01b5f52604160045260245ffd5b634e487b7160e01b5f52603260045260245ffd5b6020808252602e908201527f43616c6c6572206973206e6f7420616e206f70657261746f72206f7220636f6e60408201526d3a3930b1ba103232b83637bcb2b960911b606082015260800190565b634e487b7160e01b5f52601160045260245ffd5b818103818111156104f6576104f6611487565b634e487b7160e01b5f52603160045260245ffd5b80820281158282048414176104f6576104f6611487565b5f826114f357634e487b7160e01b5f52601260045260245ffd5b50049056fe97667070c54ef182b0f5858b034beac1b6f3089aa2d3188bb1e8929f4fa9b929a26469706673582212201d78b926d597cbd7cca1a5d52a238adb8f7da341cb93e93b417e512f0482826164736f6c634300081c0033",
  "linkReferences": {},
  "deployedLinkReferences": {},
  "immutableReferences": {},
  "inputSourceName": "project/contracts/PickerPayment.sol",
  "buildInfoId": "solc-0_8_28-a62845e262fbe128058cd544f29c8ae7550bb3f1"
}